:020000040800F2
:1000000000800120B11A0008230C00082F0C000802
:10001000350C00083B0C0008410C000800000000F3
:10002000000000000000000000000000470C000875
:10003000530C0008000000005F0C00086B0C000867
:10004000F91A0008F91A0008F91A0008F91A000844
:10005000F91A0008F91A0008090D0008F91A000831
:10006000F91A0008F91A0008F91A0008F91A000824
:10007000F91A0008F91A0008F91A0008F91A000814
:10008000F91A0008F91A0008F91A0008F91A000804
:10009000F91A0008F91A0008F91A0008F91A0008F4
:1000A000F91A0008F91A0008F91A0008F91A0008E4
:1000B000F91A0008F91A0008F91A0008F91A0008D4
:1000C000F91A0008F91A0008F91A0008F91A0008C4
:1000D000F91A0008F91A0008F91A0008F91A0008B4
:1000E000F91A0008F91A0008F91A0008F91A0008A4
:1000F000F91A0008F91A0008F91A0008F91A000894
:10010000F91A0008F91A0008F91A0008F91A000883
:10011000F91A0008F91A0008F91A0008F91A000873
:10012000F91A0008F91A0008F91A0008F91A000863
:10013000F91A0008F91A0008F91A0008F91A000853
:1001400000000000000000000000000000000000AF
:10015000F91A0008F91A0008F91A0008F91A000833
:10016000F91A0008F91A0008F91A0008F91A000823
:10017000F91A0008F91A0008F91A0008F91A000813
:04018000F91A000860
:1001900010B5054C237833B9044B13B10448AFF3C1
:1001A00000800123237010BDFC010020000000002E
:1001B0003C4D000808B5034B1BB103490348AFF39E
:1001C000008008BD00000000000200203C4D000837
:1001D000034613F8012B002AFBD1181A0138704787
:1001E00001F0FF01102A2BDB10F0070F08D010F8E8
:1001F000013B013A8B422DD010F0070F42B3F6D1EC
:10020000F0B441EA012141EA014122F007047FF004
:1002100000070023F0E80256083C85EA010586EA5B
:10022000010685FA47F5A3FA87F586FA47F6A5FA97
:1002300087F68EB9EED1F0BC01F0FF0102F00702A3
:1002400032B110F8013B013A83EA010313B1F8D14E
:100250000020704701387047002D06BF354603382F
:10026000073815F0010F07D1013015F4807F02BF68
:10027000013015F4C03F0130F0BC0138704700BFB9
:1002800081F0004102E000BF83F0004330B54FEA47
:1002900041044FEA430594EA050F08BF90EA020FB4
:1002A0001FBF54EA000C55EA020C7FEA645C7FEA47
:1002B000655C00F0E2804FEA5454D4EB5555B8BF6A
:1002C0006D420CDD2C4480EA020281EA030382EADB
:1002D000000083EA010180EA020281EA0303362D6D
:1002E00088BF30BD11F0004F4FEA01314FF4801C40
:1002F0004CEA113102D0404261EB410113F0004F52
:100300004FEA03334CEA133302D0524263EB430308
:1003100094EA050F00F0A780A4F10104D5F1200EA6
:100320000DDB02FA0EFC22FA05F2801841F1000101
:1003300003FA0EF2801843FA05F359410EE0A5F1D5
:1003400020050EF1200E012A03FA0EFC28BF4CF006
:10035000020C43FA05F3C01851EBE37101F00045BC
:1003600007D54FF0000EDCF1000C7EEB00006EEBC9
:100370000101B1F5801F1BD3B1F5001F0CD3490853
:100380005FEA30004FEA3C0C04F101044FEA4452AA
:1003900012F5800F80F09A80BCF1004F08BF5FEA31
:1003A000500C50F1000041EB045141EA050130BD11
:1003B0005FEA4C0C404141EB0101013C28BFB1F523
:1003C000801FE9D291F0000F04BF01460020B1FA6E
:1003D00081F308BF2033A3F10B03B3F120020CDA41
:1003E0000C3208DD02F1140CC2F10C0201FA0CF01F
:1003F00021FA02F10CE002F11402D8BFC2F1200C84
:1004000001FA02F120FA0CFCDCBF41EA0C01904039
:10041000E41AA2BF01EB0451294330BD6FEA040482
:100420001F3C1CDA0C340EDC04F11404C4F120026D
:1004300020FA04F001FA02F340EA030021FA04F37F
:1004400045EA030130BDC4F10C04C4F1200220FAD6
:1004500002F001FA04F340EA0300294630BD21FA14
:1004600004F0294630BD94F0000F83F4801306BFDA
:1004700081F480110134013D4EE77FEA645C18BFCE
:100480007FEA655C29D094EA050F08BF90EA020F65
:1004900005D054EA000C04BF1946104630BD91EA5D
:1004A000030F1EBF0021002030BD5FEA545C05D160
:1004B0004000494128BF41F0004130BD14F580049F
:1004C0003CBF01F5801130BD01F0004545F0FE4113
:1004D00041F470014FF0000030BD7FEA645C1ABF48
:1004E000194610467FEA655C1CBF0B46024650EA7F
:1004F000013406BF52EA033591EA030F41F40021AB
:1005000030BD00BF90F0000F04BF0021704730B530
:100510004FF4806404F132044FF000054FF0000105
:1005200050E700BF90F0000F04BF0021704730B5C6
:100530004FF4806404F1320410F0004548BF40429B
:100540004FF000013EE700BF42004FEAE2014FEAF0
:1005500031014FEA02701FBF12F07F4393F07F4FCB
:1005600081F06051704732F07F4208BF704793F0CE
:100570007F4F04BF41F40021704730B54FF46074E1
:1005800001F0004521F000411CE700BF50EA0102E4
:1005900008BF704730B54FF000050AE050EA01028D
:1005A00008BF704730B511F0004502D5404261EBFD
:1005B00041014FF4806404F132045FEA915C3FF43E
:1005C000D8AE4FF003025FEADC0C18BF03325FEADB
:1005D000DC0C18BF033202EBDC02C2F1200300FA8C
:1005E00003FC20FA02F001FA03FE40EA0E0021FAB1
:1005F00002F11444BDE600BF70B54FF0FF0C4CF49F
:10060000E06C1CEA11541DBF1CEA135594EA0C0F50
:1006100095EA0C0F00F0DEF82C4481EA030621EA8B
:100620004C5123EA4C5350EA013518BF52EA0335C6
:1006300041F4801143F4801338D0A0FB02CE4FF078
:100640000005E1FB02E506F00042E0FB03E54FF0A8
:100650000006E1FB03569CF0000F18BF4EF0010EA0
:10066000A4F1FF04B6F5007F64F5407404D25FEA9C
:100670004E0E6D4146EB060642EAC62141EA55514F
:100680004FEAC52040EA5E504FEACE2EB4F1FD0C91
:1006900088BFBCF5E06F1ED8BEF1004F08BF5FEA0F
:1006A000500E50F1000041EB045170BD06F00046C1
:1006B00046EA010140EA020081EA0301B4EB5C046E
:1006C000C2BFD4EB0C0541EA045170BD41F4801166
:1006D0004FF0000E013C00F3AB8014F1360FDEBF8B
:1006E000002001F0004170BDC4F10004203C35DA67
:1006F0000C341BDC04F11404C4F1200500FA05F3EA
:1007000020FA04F001FA05F240EA020001F000428A
:1007100021F0004110EBD37021FA04F642EB060100
:100720005EEA430E08BF20EAD37070BDC4F10C042A
:10073000C4F1200500FA04F320FA05F001FA04F2EE
:1007400040EA020001F0004110EBD37041F10001DA
:100750005EEA430E08BF20EAD37070BDC4F12005E5
:1007600000FA05F24EEA020E20FA04F301FA05F24D
:1007700043EA020321FA04F001F0004121FA04F2F5
:1007800020EA020000EBD3705EEA430E08BF20EAC5
:10079000D37070BD94F0000F0FD101F000464000FF
:1007A00041EB010111F4801F08BF013CF7D041EA81
:1007B000060195F0000F18BF704703F00046520085
:1007C00043EB030313F4801F08BF013DF7D043EA56
:1007D0000603704794EA0C0F0CEA135518BF95EA0C
:1007E0000C0F0CD050EA410618BF52EA4306D1D193
:1007F00081EA030101F000414FF0000070BD50EAB2
:10080000410606BF1046194652EA430619D094EA3B
:100810000C0F02D150EA013613D195EA0C0F05D125
:1008200052EA03361CBF104619460AD181EA030179
:1008300001F0004141F0FE4141F470014FF0000031
:1008400070BD41F0FE4141F4780170BD70B54FF0CC
:10085000FF0C4CF4E06C1CEA11541DBF1CEA13554C
:1008600094EA0C0F95EA0C0F00F0A7F8A4EB05042E
:1008700081EA030E52EA03354FEA013100F0888025
:100880004FEA03334FF0805545EA131343EA1263EE
:100890004FEA022245EA111545EA10654FEA0026A3
:1008A0000EF000419D4208BF964244F1FD0404F55C
:1008B000407402D25B084FEA3202B61A65EB0305B8
:1008C0005B084FEA32024FF480104FF4002CB6EB75
:1008D000020E75EB030E22BFB61A754640EA0C00F5
:1008E0005B084FEA3202B6EB020E75EB030E22BF35
:1008F000B61A754640EA5C005B084FEA3202B6EB76
:10090000020E75EB030E22BFB61A754640EA9C0034
:100910005B084FEA3202B6EB020E75EB030E22BF04
:10092000B61A754640EADC0055EA060E18D04FEAC2
:10093000051545EA16754FEA06164FEAC30343EA62
:1009400052734FEAC2025FEA1C1CC0D111F4801F2F
:100950000BD141EA00014FF000004FF0004CB6E728
:1009600011F4801F04BF01430020B4F1FD0C88BFC7
:10097000BCF5E06F3FF6AFAEB5EB030C04BFB6EBD2
:10098000020C5FEA500C50F1000041EB045170BDC5
:100990000EF0004E4EEA113114EB5C04C2BFD4EBF2
:1009A0000C0541EA045170BD41F480114FF0000E76
:1009B000013C90E645EA060E8DE60CEA135594EAF2
:1009C0000C0F08BF95EA0C0F3FF43BAF94EA0C0FF5
:1009D0000AD150EA01347FF434AF95EA0C0F7FF46A
:1009E00025AF104619462CE795EA0C0F06D152EABE
:1009F00003353FF4FDAE1046194622E750EA4106A2
:100A000018BF52EA43067FF4C5AE50EA41047FF4B2
:100A10000DAF52EA43057FF4EBAE12E74FF0FF3C17
:100A200006E000BF4FF0010C02E000BF4FF0010CE8
:100A30004DF804CD4FEA410C7FEA6C5C4FEA430C61
:100A400018BF7FEA6C5C1BD001B050EA410C0CBFB0
:100A500052EA430C91EA030F02BF90EA020F002012
:100A6000704710F1000F91EA030F58BF994208BF79
:100A700090422CBFD8176FEAE37040F00100704736
:100A80004FEA410C7FEA6C5C02D150EA013C07D18D
:100A90004FEA430C7FEA6C5CD6D152EA033CD3D0D8
:100AA0005DF8040B704700BF8446104662468C46D2
:100AB0001946634600E000BF01B5FFF7B7FF002805
:100AC00048BF10F1000F01BD4DF808EDFFF7F4FF2E
:100AD0000CBF012000205DF808FB00BF4DF808EDB9
:100AE000FFF7EAFF34BF012000205DF808FB00BFDC
:100AF0004DF808EDFFF7E0FF94BF012000205DF8FE
:100B000008FB00BF4DF808EDFFF7CEFF94BF0120B2
:100B100000205DF808FB00BF4DF808EDFFF7C4FFAB
:100B200034BF012000205DF808FB00BF4FEA410CF4
:100B30007FEA6C5C02D150EA013C0AD14FEA430CD7
:100B40007FEA6C5C02D152EA033C02D14FF0000014
:100B500070474FF0010070474FEA410212F5001252
:100B600015D211D56FF47873B3EB625212D94FEAF4
:100B7000C12343F0004343EA505311F0004F23FADE
:100B800002F018BF404270474FF00000704750EA33
:100B9000013005D111F0004008BF6FF000407047F0
:100BA0004FF00000704700BF80B500AF00F000F9C3
:100BB0000121012000F0BAF900BF00F054F903460A
:100BC000002BFAD001223B21022000F043FA002042
:100BD00000F0CAFB0121022000F0A8F900BF192093
:100BE00000F01AF90346012BF9D1002000F0F0F9CA
:100BF000042000F019FA042000F000FA012000F0AF
:100C000099FB022000F074FA00BF00F09BFA034643
:100C1000022BFAD1002000F08DFB00F0A9FF00BFED
:100C200080BD80B400AF00BFBD4680BC704780B4BB
:100C300000AFFEE780B400AFFEE780B400AFFEE790
:100C400080B400AFFEE780B400AF00BFBD4680BCFB
:100C5000704780B400AF00BFBD4680BC704780B411
:100C600000AF00BFBD4680BC704780B400AF00BF7E
:100C7000BD4680BC704780B584B000AF01214FF401
:100C8000C01000F015F90021002000F0E7FC3B1D2A
:100C9000184600F07FFB01237B7300233B71012387
:100CA000BB6000233B733B1D184600F089FB03200B
:100CB00000F019FE00220021062000F0F3FD00BF25
:100CC0001037BD4680BD000080B500AF052001F0A3
:100CD00047F9012000F0D8FB0121094800F0A4FCED
:100CE0000346012B0AD1074B1B78042B03D1054B7C
:100CF00001221A7002E0034B04221A7000BF80BD6B
:100D0000000801400000002080B500AFFFF7DCFFC5
:100D100000BF80BD80B500AFFFF746FF01F046F889
:100D2000FFF7A9FF4FF4E13000F0FAFF1E4801F091
:100D300059FE002001F0CCF81C4B1B789BB21A46E0
:100D4000920013441A4691001A460B4613449B0026
:100D50009BB2184601F004F9012001F0B9F8134BD9
:100D60001B789BB21A46920013441A4691001A4609
:100D70000B4613449B009BB2184601F0F1F8022089
:100D800001F0A6F8094B1B789BB21A469200134457
:100D90001A4691001A460B4613449B009BB2184614
:100DA00001F0DEF8C5E700BF584D00080000002044
:100DB00080B400AF174A136843F00103136000BF0B
:100DC000144B1B68C3F34003DBB2012BF8D1114A6B
:100DD00053686FF30103536000BF0E4B5B68C3F3AE
:100DE0008103DBB2002BF8D10A4B1B68094A23F0C0
:100DF000867323F480331360064B00225A60054B40
:100E000000221A63034B4FF41F029A6000BFBD46D5
:100E100080BC70470010024080B485B000AF78609D
:100E20000023FB737B681B0C03F1804303F5043341
:100E30001A687B6803F01F03012101FA03F31A40CB
:100E40007B6803F01F03012101FA03F39A4202D0E9
:100E50000023FB7301E00123FB73FB7B184614376F
:100E6000BD4680BC704780B582B000AF00237B6078
:100E70000023FB7002E07B6801337B601120FFF7E9
:100E8000CBFF0346012B03D07B68B3F5405FF2D361
:100E90001120FFF7C1FF0346012B02D00023FB7096
:100EA00001E00123FB70FB7818460837BD4680BD82
:100EB00080B483B000AF78600B46FB70FB78012BE9
:100EC00016D17B681B0C03F1804303F504331968CA
:100ED0007B6803F01F0301229A407B681B0C03F11F
:100EE000804303F50433184641EA0203036017E028
:100EF0007B681B0C03F1804303F5043319687B689E
:100F000003F01F03012202FA03F3DA437B681B0C90
:100F100003F1804303F50433184601EA020303603A
:100F200000BF0C37BD4680BC7047000080B483B062
:100F300000AF03460A46FB711346BB71FB79042BD5
:100F40003ED801A252F823F05D0F0008710F00088F
:100F5000850F0008990F0008AD0F00081B4ABB79E8
:100F600003F00103D9B2136861F30003136028E0B2
:100F7000164ABB7903F00103D9B2136861F3104339
:100F800013601EE0114ABB7903F00103D9B2136864
:100F900061F31863136014E00C4ABB7903F001039A
:100FA000D9B2136A61F3000313620AE0074ABB79FE
:100FB00003F00103D9B2536A61F30003536200E006
:100FC00000BF00BF0C37BD4680BC70470010024018
:100FD00080B483B000AF0346FB71074AFB7903F08E
:100FE0000F03D9B2536861F30713536000BF0C3786
:100FF000BD4680BC704700BF0010024080B483B083
:1010000000AF0346FB71074AFB7903F00703D9B22F
:10101000536861F30A23536000BF0C37BD4680BCA0
:10102000704700BF0010024080B483B000AF034699
:10103000FB71074AFB7903F00703D9B2536861F3E8
:10104000CD23536000BF0C37BD4680BC704700BF46
:101050000010024080B483B000AF0346FB710B4622
:10106000BB7113467B71FB79002B0AD11F4A536871
:101070006FF3104353601D4A136B43F00073136307
:1010800012E01A4A536843F480335360FB79012B12
:1010900005D1164A53686FF35143536004E0134A75
:1010A000536843F400335360104ABB7903F00F03D5
:1010B000D9B2536861F395435360BB791B110B4A56
:1010C00003F00303D9B2536861F35E735360074AB8
:1010D0007B7903F00103D9B2536861F3DF73536086
:1010E00000BF0C37BD4680BC704700BF00100240F7
:1010F00080B483B000AF0346FB71114AFB7903F063
:101100000303D9B2536861F30103536000BF00BF0A
:1011100000BF00BF00BF00BF00BF00BF00BF00BFD7
:1011200000BF00BF00BF00BF00BF00BF00BF00BFC7
:1011300000BF00BF00BF0C37BD4680BC704700BF7A
:101140000010024080B400AF044B5B68C3F381031E
:10115000DBB21846BD4680BC704700BF001002409D
:1011600080B58AB000AF786000233B6200237B62C9
:101170000023FB610023BB6100237B6100233B61F3
:10118000FFF7E0FF0346FB73FB7B022B20D0022B13
:1011900069DC002B02D0012B16D064E05D4B5B6D47
:1011A000C3F34023DBB2002B0AD05A4B1B6BC3F3B3
:1011B0004063DBB2002B03D07B68574A1A6056E0CD
:1011C0007B68564A1A6052E07B68544A1A604EE0C7
:1011D000504B5B68C3F30043DBB2BB614D4B5B68B4
:1011E000C3F38343DBB27B624A4B5B68C3F3417357
:1011F000DBB2FB61FB69002B02D17B6A0F2B06D1AE
:10120000FB691A017B6A134401337B6202E07B6A4B
:1012100002337B62BB69002B06D17B6A404A03FB29
:1012200002F27B681A6022E03A4B5B68C3F34043EA
:10123000DBB2002B10D0374B5B6DC3F30133DBB255
:101240003B623B6A0233354AB2FBF3F37A6A03FB33
:1012500002F27B681A600AE07B6A304A03FB02F202
:101260007B681A6003E07B682C4A1A6000BF294B38
:101270005B68C3F30313DBB27B612A4A7B691344C7
:101280001B783B617B681A683B69DA407B685A606F
:10129000204B5B68C3F30223DBB27B61224A7B698C
:1012A00013441B783B617B685A683B69DA407B6872
:1012B000DA60184B5B68C3F3C223DBB27B611B4A65
:1012C0007B6913441B783B617B685A683B69DA4051
:1012D0007B689A600F4B5B68C3F30073DBB27B6182
:1012E0007B699B000B4A5268C2F38132D2B213432E
:1012F0007B610F4A7B6913441B783B617B689A686A
:101300003B69B2FBF3F27B681A6100BF2837BD4628
:1013100080BD00BF00100240006CDC0200127A00A9
:1013200000093D00744D0008844D00088C4D0008F4
:10133000944D000880B483B000AF0346FB71FB7985
:10134000012B05D1074A536D43F03003536504E088
:10135000044A536D6FF30513536500BF0C37BD4648
:1013600080BC70470010024080B483B000AF0346D9
:10137000FB71074AFB7903F00303D9B2536D61F3A4
:101380000D33536500BF0C37BD4680BC704700BFAE
:101390000010024080B483B000AF78607B68002208
:1013A0005A727B6800225A607B6801221A727B683D
:1013B00001221A7000BF0C37BD4680BC7047000088
:1013C00080B485B000AF78600023FB607B685B6809
:1013D000FB602C4B1A68FB68DB432A4913400B6007
:1013E000284B5A68FB68DB43264913404B607B68F7
:1013F0005B7A002B40D07B681B78002B06D1214BF9
:101400001A682049FB6813430B6005E01D4B5A68BE
:101410001C49FB6813434B601A4B9A68FB68DB431B
:10142000184913408B60174BDA68FB68DB4315499A
:101430001340CB607B681B7A002B06D1114B9A6856
:101440001049FB6813438B6016E07B681B7A012B05
:1014500006D10C4BDA680B49FB681343CB600BE0F9
:10146000084B9A680749FB6813438B60054BDA68A1
:101470000449FB681343CB6000BF1437BD4680BCF2
:10148000704700BF0004014080B483B000AF7860B3
:101490000A4B1A697B6813407A689A4206D1074A58
:1014A0007B685361054A7B68536102E0034A7B68AD
:1014B000536100BF0C37BD4680BC7047000401403B
:1014C00080B485B000AF786039603B681B683B81B1
:1014D0003B689B79032B02D100237B8130E03B6882
:1014E0009B79002B15D13B685B799BB203F00F030E
:1014F0007B813B685B79182B03D13A897B681A6141
:101500001EE03B685B79282B1AD13A897B685A61C7
:1015100016E03B689B791BB203F008031AB23B68E4
:101520001B791BB203F004031BB213431AB23B68CE
:10153000DB791BB203F003031BB213431BB27B81A5
:101540003B89DBB2002B25D00023FB601FE03A89EA
:10155000FB6842FA03F303F00103002B14D07B680D
:101560001B68FA6892000F2101FA02F2D2431A4076
:101570007B681A607B681B687989FA68920001FAB7
:1015800002F21A437B681A60FB680133FB60FB6858
:10159000072BDCD93B89FF2B28D93B891B0A3B81D0
:1015A0000023FB601FE03A89FB6842FA03F303F073
:1015B0000103002B14D07B685B68FA6892000F214E
:1015C00001FA02F2D2431A407B685A607B685B687A
:1015D0007989FA68920001FA02F21A437B685A602C
:1015E000FB680133FB60FB68072BDCD900BF1437B5
:1015F000BD4680BC704780B483B000AF78607B6824
:101600004FF6FF721A607B6800229A717B68002295
:101610001A717B6804225A717B680122DA7100BF5B
:101620000C37BD4680BC704780B485B000AF786091
:101630000B467B800023FB737A8879887B689B68E4
:101640000B409A4202D00023FB7301E00123FB739D
:10165000FB7B18461437BD4680BC704780B485B00C
:1016600000AF03460A46FB711346BB710023FB60C3
:10167000BB7903F003039B000F2202FA03F3FB6024
:10168000BB799B08DBB2032B5AD801A252F823F096
:10169000A1160008C9160008F1160008191700085D
:1016A0002A4B9A68FB68DB43284913408B60274B21
:1016B0009A68F979BB7903F003039B0001FA03F3FD
:1016C000224913438B603CE0204BDA68FB68DB4324
:1016D0001E491340CB601D4BDA68F979BB7903F0E2
:1016E00003039B0001FA03F318491343CB6028E07E
:1016F000164B1A69FB68DB43144913400B61134B0B
:101700001A69F979BB7903F003039B0001FA03F32B
:101710000E4913430B6114E00C4B5A69FB68DB4321
:101720000A4913404B61094B5A69F979BB7903F0B7
:1017300003039B0001FA03F3044913434B6100E0E8
:1017400000BF00BF1437BD4680BC70470000014099
:1017500080B485B000AF78607B6803F00703FB605E
:101760000C4BDB68BB60BA684FF6FF031340BB60ED
:10177000FB681A02BB68134343F0BF6343F40033B2
:10178000BB60044ABB68D36000BF1437BD4680BC51
:10179000704700BF00ED00E080B400AF044BDB6891
:1017A0001B0A03F007031846BD4680BC704700BF04
:1017B00000ED00E080B483B000AF0346FB7197F901
:1017C0000730002B0BDBFB7903F01F02064997F96A
:1017D00007305B09012000FA02F241F8232000BF24
:1017E0000C37BD4680BC704700E100E080B483B098
:1017F00000AF03463960FB7197F90730002B0ADB15
:101800003B68DAB20C4997F907301201D2B20B44A7
:1018100083F800230AE03B68DAB20849FB7903F059
:101820000F03043B1201D2B20B441A7600BF0C37EF
:10183000BD4680BC704700BF00E100E000ED00E065
:1018400080B489B000AFF860B9607A60FB6803F0DB
:101850000703FB61FB69C3F10703042B28BF0423C3
:10186000BB61FB690433062B02D9FB69033B00E033
:1018700000237B614FF0FF32BB6902FA03F3DA43C6
:10188000BB681A407B699A404FF0FF317B6901FACF
:1018900003F3D9437B680B40134318462437BD46F6
:1018A00080BC704780B586B000AF0346B9607A60EF
:1018B000FB7300237B61FFF76FFF03467A68B9680B
:1018C0001846FFF7BDFF786197F90F307969184620
:1018D000FFF78CFF97F90F301846FFF76BFF00BF3B
:1018E0001837BD4680BD80B582B000AF0346FB719E
:1018F000FB791846FFF72CFF00BF0837BD4680BDB7
:1019000080B483B000AF0346FB71FB79042B06D192
:10191000084B1B68074A43F00403136005E0054BBE
:101920001B68044A23F00403136000BF0C37BD4654
:1019300080BC704710E000E080B58CB000AFF8606C
:10194000B96011461A460B46FB711346BB7107F18D
:1019500014031846FFF704FCFB682A4A93420BD095
:10196000FB68294A934207D0FB68284A934203D078
:10197000FB68274A934202D1FB69FB6201E03B6AA4
:10198000FB62FA6A13469B0013445B001A46BB686D
:10199000B2FBF3F3BB62B96A1E4BA3FB0123DA0867
:1019A00013469B0013445B00CA1A042A06D8BB6A7C
:1019B000184AA2FB0323DB08BB6206E0BB6A154A98
:1019C000A2FB0323DB080133BB62BB6A99B2FA684E
:1019D000936861F30F039360FB7903F00103D9B2BD
:1019E000FA68D36861F30C33D360BB7903F0030367
:1019F000D9B2FA68136961F30D33136100BF303750
:101A0000BD4680BD003801400060014000640140D7
:101A100000680140CDCCCCCC80B483B000AF7860FE
:101A20000B46FB70FB7803F00103D9B27A68D368E8
:101A300061F34D33D36000BF0C37BD4680BC7047A7
:101A400080B483B000AF78600B46FB70FB7803F086
:101A50000103D9B27A68D36861F3C303D36000BFCE
:101A60000C37BD4680BC704780B483B000AF78604F
:101A70000B467B807B88C3F308027B685A6000BFFB
:101A80000C37BD4680BC704780B483B000AF78602F
:101A900039607B681A683B681340002B01D0012332
:101AA00000E0002318460C37BD4680BC704700009C
:101AB000002103E00B4B5B58435004310A480B4BA9
:101AC00042189A42F6D30A4A02E0002342F8043B45
:101AD000084B9A42F9D300F011F800F08DFAFFF7A5
:101AE00019F97047D451000800000020FC010020C3
:101AF000FC01002034020020FEE7000080B400AFAB
:101B0000194A136843F00103136000BF164B1B68AA
:101B1000C3F34003DBB2012BF8D1134A53686FF3D0
:101B20000103536000BF104B5B68C3F38103DBB25A
:101B3000002BF8D10C4B1B680B4A23F0867323F45F
:101B400080331360084B00225A60074B00221A634F
:101B5000054B4FF41F029A60044B4FF000629A60ED
:101B600000BFBD4680BC70470010024000ED00E0A1
:101B700080B588B000AF0023BB610023FB61002368
:101B80007B6100233B610023FB600023BB60FFF708
:101B9000D9FA0346FB71FB79022B20D0022B69DCBA
:101BA000002B02D0012B16D064E03F4B5B6DC3F3DA
:101BB0004023DBB2002B0AD03B4B1B6BC3F34063CB
:101BC000DBB2002B03D0394B394A1A6056E0374B51
:101BD000384A1A6052E0354B364A1A604EE0324BB2
:101BE0005B68C3F30043DBB23B612F4B5B68C3F31D
:101BF0008343DBB2FB612C4B5B68C3F34173DBB205
:101C00007B617B69002B02D1FB690F2B06D17B69BD
:101C10001A01FB6913440133FB6102E0FB690233E3
:101C2000FB613B69002B06D1FB69234A02FB03F3EE
:101C30001E4A136022E01C4B5B68C3F34043DBB2D7
:101C4000002B10D0184B5B6DC3F30133DBB2BB61CB
:101C5000BB690233174AB2FBF3F3FA6902FB03F3E1
:101C6000124A13600AE0FB69124A02FB03F30F4AAF
:101C7000136003E00D4B0F4A1A6000BF0A4B5B680C
:101C8000C3F30313DBB2FB600C4AFB6813441B78FD
:101C9000BB60064B1A68BB6822FA03F3034A136061
:101CA00000BF2037BD4680BD001002400400002068
:101CB000006CDC0200127A0000093D009C4D000817
:101CC00080B586B000AFF860B9607A6000237B61B0
:101CD0001BE000BF80211148FFF7D6FE0346002B12
:101CE000F8D0BB685A1CBA601B789BB219460B48E7
:101CF000FFF7BAFE00BF40210848FFF7C5FE0346C4
:101D0000002BF8D07B6901337B617A697B689A424A
:101D1000DFDB7B6818461837BD4680BD00380140C0
:101D200080B584B000AF78601B4B1B6898680023B7
:101D30000222002100F05EFE01211848FFF7B8F8EA
:101D400001211748FFF7B4F807F108031846FFF719
:101D500052FC0123FB7300233B730823BB734FF436
:101D60000073BB6004237B7307F1080319460D4819
:101D7000FFF7A6FB0023002279680B48FFF7DCFD84
:101D800001210948FFF75CFE01210748FFF744FEE7
:101D900000BF1037BD4680BD2C0000200E0018008B
:101DA00002001800000801400038014080B500AF73
:101DB00000F0B6F8002000F035F8012000F032F80D
:101DC000022000F02FF8002000F060F8012000F061
:101DD0005DF8022000F05AF800F002F800BF80BD64
:101DE00080B582B000AF01210C48FFF761F83B4697
:101DF0001846FFF700FC0123FB7100233B71002311
:101E0000BB7101233B6028237B713B461946044884
:101E1000FFF756FB00BF0837BD4680BD0200180023
:101E20000008014080B584B000AF0346FB71FB7928
:101E3000134A52F8233001211846FFF739F807F109
:101E400008031846FFF7D7FB0123FB7300233B73FE
:101E50001023BB73FB790B4A32F81330BB600423A9
:101E60007B73FB79084A52F8233007F108021146C8
:101E70001846FFF725FB00BF1037BD4680BD00BFE9
:101E80001C000020140000200800002080B483B053
:101E900000AF0346FB71FB79022B10D8FB790A4A8D
:101EA00032F81330002B0BD0FB79074A32F81310AD
:101EB000FB79064A52F823300A461A6100E000BF57
:101EC0000C37BD4680BC704714000020080000207D
:101ED00080B483B000AF0346FB71FB79022B16D8A8
:101EE000FB790D4A32F81330002B11D0FB790B4AE5
:101EF00052F82330DA68FB79074931F81330184675
:101F0000FB79064951F823304240DA6000E000BF17
:101F10000C37BD4680BC704714000020080000202C
:101F200080B500AF0420FFF7EBFC094B1B68094AA2
:101F3000A2FB03239B0C084A1360074B1B684FF45A
:101F40007A7202FB03F3054A136000BF80BD00BF35
:101F50000400002083DE1B43180200201C02002026
:101F600080B485B000AF0346FB800023FB6035E002
:101F7000FB88322B0AD91E4B1B681E4A322101FBFB
:101F800003F35360FB88323BFB8008E0FB88184A70
:101F90001268184902FB03F34B600023FB80154BCA
:101FA00000229A60134B1B68124A43F0010313602E
:101FB000104B1B68FB60FB6803F00103002B04D08F
:101FC000FB6803F48033002BF2D00A4B1B68094AEC
:101FD00023F001031360074B00229A60FB88002B5B
:101FE000C6D100BF00BF1437BD4680BC704700BFDC
:101FF0001C02002010E000E070B50D4D0D4C641B7C
:10200000A4100026A64209D10B4D0C4C02F096FEFE
:10201000641BA4100026A64205D170BD55F8043BF0
:1020200098470136EEE755F8043B98470136F2E74A
:10203000CC510008CC510008CC510008D051000808
:1020400002440346934200D1704703F8011BF9E7AD
:102050002DE9F04788B0002B1F461446B8BF03F1A6
:102060000043129A109DDDF84CA0B6BF1F46002316
:102070002D231370149B23F02008B8F1460F05D0D0
:10208000B8F1450F00D10135022300E0032307AA70
:10209000049206AACDE902A2CDE9003522463B46CC
:1020A00000F0B6FEB8F1470F064602D1119BDB07E0
:1020B00022D5B8F1460F06EB050910D13378302B45
:1020C0000AD10022002320463946FEF7FDFC18B94C
:1020D000C5F10105CAF80050DAF800309944002231
:1020E000002320463946FEF7EFFC08B1CDF81C90DE
:1020F0003022079B4B4507D3079B159A9B1B304605
:10210000136008B0BDE8F087591C07911A70F0E71A
:10211000F7B503460029B8BF494203F8022BB4BF04
:102120002D222B22092942702ADD0DF10704A44635
:102130000A27A6460A4691FBF7F607FB1615303527
:10214000632A04F1FF340EF8015C3146F1DC3031D2
:10215000AEF1020504F8011C441C294661450AD36E
:102160000DF10902A2EB0E02654588BF002213445F
:10217000181A03B0F0BD11F8012B04F8012FEDE798
:10218000302330318370C170031DF1E72DE9F04F2A
:1021900091B00C46DDF8688016461F46054601F0F2
:1021A000D9FD036809931846FEF712F800230E9331
:1021B000D8F800300A90073323F0070303F1080230
:1021C00094F81890D4F800B0C8F80020D3E90023A0
:1021D000C4E91223D4E9128A2AF000430B930B9925
:1021E0009C4B4FF0FF324046FEF7A0FC70BB994B72
:1021F0000B994FF0FF324046FEF77AFC30BB0022CD
:10220000002340465146FEF769FC10B12D2384F8A7
:102210004330914B9148B9F1470F94BF984680469F
:10222000032323612BF0040323604FF0000A00977F
:1022300033460FAA2146284600F0D2F9013040F07B
:102240008F804FF0FF3011B0BDE8F08F424653460B
:1022500040465146FEF76AFC40B1BAF1000FBCBFE0
:102260002D2384F843307E487E4BD4E763685A1CA4
:1022700009F0DF0142D106236360002206920EAA14
:10228000CDE904920DAA4BF4806303920DF1330261
:10229000CDE90132236063680093424653462846E5
:1022A0000B91FFF7D5FE0B99472980460D9908D170
:1022B000C81C02DB6368994240DDA9F102095FFA9C
:1022C00089F9B9F1650F1FD801394A4604F1500068
:1022D0000D91FFF71DFF0E9A1318012A8246236104
:1022E00002DC2268D20701D5013323619DF8333027
:1022F000002B9CD02D2384F8433098E74729BCD18C
:10230000002BBAD10123B7E7B9F1660F18D1002924
:1023100063680BDD216113B92268D00702D5013350
:102320000B442361A1654FF0000ADFE713B922686F
:10233000D20701D50233F4E70123F2E74FF0670932
:102340000E9B994205DB23682161D807EAD54B1C17
:10235000E7E70029D4BFC1F1020201221344E0E7FC
:1023600023685A0507D42369424631462846B847B0
:1023700001302BD165E7B9F1650F40F2DC80D4E97B
:10238000120100220023FEF79FFB002833D0364ABB
:10239000012331462846B84701303FF452AFDDE90A
:1023A0000D239A4202DB2368D8070FD5DDE9092304
:1023B00031462846B84701303FF443AF4FF000089C
:1023C00004F11A090E9B013B434509DC23689B0776
:1023D00000F10181E0680F9B9842B8BF184632E7D0
:1023E00001234A4631462846B84701303FF429AF19
:1023F00008F10108E6E70D9B002B37DC1A4A0123A0
:1024000031462846B84701303FF41BAFDDE90D23C4
:10241000134302D12368D907D8D5DDE90923314612
:102420002846B84701303FF40CAF4FF0000904F1E3
:102430001A0A0D9B5B424B4501DC0E9B94E701237E
:10244000524631462846B84701303FF4FAAE09F10A
:102450000109EEE7FFFFEF7FB04D0008B44D000823
:10246000BC4D0008B84D0008C04D00080E9AA36D81
:102470009A42A8BF1A46002A914637DC4FF0000B5B
:1024800029EAE97904F11A02D4F858A0AAEB090361
:102490005B4533DCDDE90D239A423BDB2368DA0739
:1024A00038D40E9B0D99A3EB0A02A3EB01099145C9
:1024B000A8BF9146B9F1000F34DC4FF0000829EABB
:1024C000E97904F11A0ADDE90D239B1AA3EB09034C
:1024D00043457FF77BAF0123524631462846B84734
:1024E00001303FF4AEAE08F10108ECE71346314687
:1024F00042462846B8470130C0D1A2E60123314602
:1025000028460B92B84701303FF49BAE0B9A0BF173
:10251000010BB9E7DDE9092331462846B847013008
:10252000BFD18EE64B4608EB0A0231462846B84733
:102530000130C2D185E60E9A012A01DCDB0737D5CE
:102540000123424631462846B84701303FF479AE70
:10255000DDE9092331462846B84701303FF471AE22
:10256000D4E9120100220023FEF7AEFAD8B90E9B7F
:1025700008F10102013B31462846B84701300ED12F
:102580005FE601234A4631462846B84701303FF40A
:1025900058AE08F101080E9B013B4345F1DC534660
:1025A00004F15002E1E64FF0000804F11A09F2E7E5
:1025B00001234246DFE701234A4631462846B84711
:1025C00001303FF43EAE08F10108E3680F995B1A51
:1025D0004345F0DCFEE64FF0000804F11909F4E78A
:1025E0002DE9F047164699468A680B69DDF8208088
:1025F0009342B8BF1346336091F8432007460C4618
:102600000AB1013333602368990642BF336802334D
:102610003360256815F0060506D104F1190AE36850
:1026200032689B1AAB4226DC94F84320131E2268C2
:1026300018BF012392062BD404F1430249463846C1
:10264000C04701301ED02368E568326803F00603F6
:10265000042B08BFAD1AA36822690CBF25EAE575F3
:1026600000259342C4BF9B1AED1800261A34B542C8
:102670001AD1002008E00123524649463846C04797
:10268000013003D14FF0FF30BDE8F0870135C6E7D8
:10269000E1185A1C302081F84300224494F8451078
:1026A00082F843100233C7E70123224649463846E1
:1026B000C0470130E6D00136D9E700002DE9FF47D9
:1026C0000F7E0C9D782F914680460C469A4601F16C
:1026D000430207D8622F0AD8002F00F0D880582F65
:1026E00000F0A38004F1420584F842703AE0A7F1BB
:1026F0006303152BF6D801A151F823F055270008E4
:1027000069270008E5260008E5260008E5260008F8
:10271000E526000869270008E5260008E5260008E8
:10272000E5260008E5260008752800089927000816
:1027300057280008E5260008E52600089728000825
:10274000E526000899270008E5260008E526000888
:102750005F2800082B681A1D1B682A6004F14205D7
:1027600084F842300123A3E020682968060601F1BD
:1027700004030AD50E682B60002E03DA2D2376425F
:1027800084F843305E480A2319E00E682B6010F08D
:10279000400F18BF36B2EFE72B682068191D29607B
:1027A000010601D51E6802E04606FBD51E88544886
:1027B0006F2F0CBF08230A23002184F8431065689B
:1027C000A560002DA2BF216821F0040121600EB98F
:1027D000002D4DD01546B6FBF3F103FB1167C75D25
:1027E00005F8017D3746BB420E46F4D9082B0BD1C4
:1027F0002368DE0708D5236961689942DEBF30236C
:1028000005F8013C05F1FF35521B2261CDF800A00F
:102810004B4603AA21464046FFF7E2FE01304CD169
:102820004FF0FF3004B0BDE8F087354881F84570BF
:102830002968236851F8046B29601D0614D5DF0749
:1028400044BF43F0200323601EB9236823F0200314
:1028500023601023B0E7236843F02003236078232C
:10286000284884F84530E3E7590648BFB6B2E6E7A2
:102870001546BBE72B6826686169181D2860350678
:102880001B6801D5196002E07006FBD51980002392
:1028900023611546BAE72B681A1D2A601D68626815
:1028A00000212846FDF79CFC08B1401B606063686E
:1028B0002361002384F84330A8E723692A46494668
:1028C0004046D0470130ABD023689B0713D4E06863
:1028D000039B9842B8BF1846A4E7012332464946F5
:1028E0004046D04701309BD00135E36803995B1A1D
:1028F000AB42F2DCEBE7002504F11906F5E700BF77
:10290000C24D0008D34D000870B50E46054618B1FB
:1029100083690BB901F080F9AB69AC6813B928463B
:1029200001F07AF92C4B9C4220D16C68636EDB0776
:1029300005D4A389980502D4A06D01F010FAA389EB
:1029400019071DD52369DBB1013EA36816F8011FE5
:10295000013BA36039BB002B38DA22460A21284606
:1029600000F00EF9013011D00A2511E01B4B9C42FA
:1029700001D1AC68DAE71A4B9C4208BFEC68D5E796
:102980002146284600F04EF90028DDD04FF0FF35F3
:10299000636EDA0705D4A3899B0502D4A06D01F00C
:1029A000DFF9284670BD002B04DAA2699A4206DCE2
:1029B0000A2904D023685A1C22601970C5E72246F0
:1029C000284600F0DDF80130BFD1DFE723680A2593
:1029D0005A1C22601D70DBE7B84E0008D84E000874
:1029E000984E0008024B01461868FFF78DBF00BFE4
:1029F0002C0000202DE9F7431D465D4B1F6804465F
:102A00000E46904627B1BB6913B9384601F004F968
:102A1000584B9C4267D17C68B8F1020F06D0B8F1E0
:102A2000010F00F29F80002DC0F29C80636EDB07D7
:102A300005D4A389980502D4A06D01F090F9214630
:102A4000384601F055F8616B41B104F144039942F5
:102A500002D0384601F092FD002363630023A36196
:102A60006360A389190603D52169384601F086FD04
:102A7000A38923F44A6323F00303B8F1020FA3816F
:102A80006CD001AB6A462146384601F06AF9A38949
:102A90001843A081002D30D1009D284601F0C6F9D1
:102AA0000646002855D1DDF80090A9454AD14FF0DF
:102AB000FF350022A26004F1470222602261012258
:102AC000B4F90C306261626E43F00203D207A38155
:102AD00005D413F4007F02D1A06D01F041F928461E
:102AE00003B0BDE8F083244B9C4201D1BC6893E75E
:102AF000224B9C4208BFFC688EE7002ECDD0BB69FC
:102B000013B9384601F088F8B8F1010F08BFA3895E
:102B1000266004BF43F00103A381A28912F00803D9
:102B2000C4E904651CD0D30741BF00236D42A360F4
:102B3000A56158BFA560656E15F0010515D112F4A9
:102B4000007FC8E7484601F071F906460028AED07C
:102B50004D46A38943F08003A381D0E70025A8E771
:102B6000A360E8E74FF0FF35B9E70025B7E700BFFE
:102B70002C000020B84E0008D84E0008984E0008DF
:102B8000F8B50E461446054618B183690BB901F035
:102B900043F8214B9C422BD16C68A369A360A389A5
:102BA0001A072FD523696BB323692068C01A63699C
:102BB000F6B28342374604DC2146284600F098FFEF
:102BC00030BBA368013BA36023685A1C22601E70BF
:102BD00063690130834204D0A389DB0706D50A2E3E
:102BE00004D12146284600F083FF88B93846F8BD55
:102BF0000A4B9C4201D1AC68CFE7094B9C4208BF0D
:102C0000EC68CAE72146284600F00CF80028CBD033
:102C10004FF0FF37EAE700BFB84E0008D84E000873
:102C2000984E0008324B70B51D6806460C4625B11B
:102C3000AB6913B9284600F0EFFF2E4B9C420FD131
:102C40006C68A389B4F90C2019072CD4DD0611D4C3
:102C50000923336042F04003A3814FF0FF303EE090
:102C6000254B9C4201D1AC68EBE7244B9C4208BF4A
:102C7000EC68E6E7580712D5616B41B104F14403F3
:102C8000994202D0304601F079FC00236363A389A6
:102C900023F02403A3810023636023692360A389B5
:102CA00043F00803A38123694BB9A38903F420737C
:102CB000B3F5007F03D02146304601F077F8A089B4
:102CC000B4F90C2010F001030AD00023A36063695B
:102CD0005B42A361236943B910F08000BAD170BD93
:102CE000810758BF6369A360F4E70020F7E700BFDE
:102CF0002C000020B84E0008D84E0008984E00085E
:102D00002DE9F74F03690C69A34207467DDB013CBF
:102D100001F1140800F1140505EB8403019358F840
:102D2000243055F8242001339A424FEA840B08EBF3
:102D30008409B2FBF3F62ED34FF0000E4046AC46AA
:102D4000F24650F8042B93B206FB03E34FEA134E0E
:102D5000120C9BB206FB02E2AAEB0303DCF800A014
:102D60004FEA124E92B213FA8AF3C2EB1A4202EB06
:102D700023429BB243EA024381454CF8043B4FEAAD
:102D8000224ADED255F80B302BB9019B043B9D4201
:102D90001A462ED33C61384601F0DCFA002824DBC9
:102DA000013628464FF0000C58F8042BD0F800E00C
:102DB00093B2ACEB0303120C13FA8EF3C2EB1E4278
:102DC00002EB23429BB243EA0243C14540F8043B75
:102DD0004FEA224CE8D255F8242005EB840322B9AF
:102DE000043B9D421A460AD33C61304603B0BDE81D
:102DF000F08F1268043B002ACCD1013CC7E712686F
:102E0000043B002AF0D1013CEBE70020EEE7000094
:102E10002DE9F04F446A99B016461F46CDE9046784
:102E2000DDF89480054674B9102000F0FFFF0246DB
:102E3000686220B9A84BEA21A84801F0E3FCC0E988
:102E400001440460C4606B6A196851B15A684A60F1
:102E5000012393408B60284601F03EF86B6A002204
:102E60001A603B1EB9BF23F0004305930023C8F846
:102E70000030DDF814909A4BBCBF0122C8F8002046
:102E800033EA090319D1249A42F20F731360C9F38C
:102E90001303334300F08085269B53B9914B22E006
:102EA000914B03930833269A1360039819B0BDE839
:102EB000F08F8C4B03930333F5E7DDE90434CDE960
:102EC0000C34DDE90C0100220023FDF7FDFD8046F6
:102ED00058B1249A01231360269B002B00F05985DA
:102EE00082481860431E0393DFE716AB019317ABCC
:102EF00000932846DDE90C2301F0D0FAC9F30A5407
:102F00008346002C7ED00D9BCDF84C80C3F3130379
:102F1000DDE90C0143F07F5141F44011A4F2FF348C
:102F2000734B0022FDF7B0F965A3D3E90023FDF749
:102F300063FB65A3D3E90023FDF7A8F90646204605
:102F40000F46FDF7EFFA62A3D3E90023FDF754FB28
:102F500002460B4630463946FDF798F906460F46BD
:102F6000FDF7FAFD00228246002330463946FDF780
:102F7000B5FD48B15046FDF7D5FA32463B46FDF760
:102F8000A3FD08B90AF1FF3ABAF1160F57D8594B09
:102F900003EBCA03D3E90023DDE90C01FDF79EFD35
:102FA00000284ED00AF1FF3A00230F93169B1C1BFA
:102FB000631E099345BFC4F1010306930023002358
:102FC0004CBF09930693BAF1000F3CDB099BCDF887
:102FD00038A05344099300230A93229B092B00F243
:102FE0008D80052BC4BF043B2293229BA3F10203D7
:102FF000CCBF00240124032B00F28C80DFE803F017
:103000002D4F4D5BDDE916431C4404F23243202B67
:10301000C3BFC3F1400304F2124009FA03F3C3F142
:103020002003C6BF26FA00F0184306FA03F0FDF7A6
:1030300069FA0123A1F1F871013C139370E70123B0
:10304000B3E70F90B2E7069BA3EB0A030693CAF11E
:1030500000030A9300230E93BFE700230B93239BE7
:10306000002B5ADC4FF00109CDF820904B46CDF8EB
:103070008C90686A00224260042202F114069E428B
:10308000416850D9284600F0E7FE039000284ED151
:10309000194B02464FF4D571CEE60123DEE700233B
:1030A0000B93239B0AEB030909F10103012B0893FE
:1030B000B8BF0123DDE70123F2E700BFAFF30080D3
:1030C00061436F63A787D23FB3C8608B288AC63F2E
:1030D000FB799F501344D33FF14D0008084E000880
:1030E0000000F07FED4D0008E44D0008C14D0008E0
:1030F0000000F83FA04F0008864E0008012400237E
:1031000022930B944FF0FF390022CDF82090122328
:103110002392AEE701230B93F4E7DDF88C90CDF812
:1031200020904B46A5E7013141605200A5E76B6A4C
:10313000039A1A60089B0E2B00F2A880002C00F066
:10314000A580BAF1000F34DD9A4A0AF00F0302EBB2
:10315000C303D3E900341AF4807FCDE910344FEA79
:103160002A1416D0944BDDE90C01D3E90823FDF7AE
:103170006DFBCDE9040104F00F0403278E4E54B912
:10318000DDE91023DDE90401FDF760FBCDE9040171
:1031900029E00227F2E7E10708D5DDE91001D6E9C9
:1031A0000023FDF729FACDE9100101376410083634
:1031B000E5E700F0A580CAF100047E4B7E4E04F0E6
:1031C0000F0203EBC203D3E90023DDE90C01FDF795
:1031D00013FACDE90401241100230227002C40F04A
:1031E0008480002BD2D10F9B002B00F08B80DDE977
:1031F0000434CDE91034DDE91001704B0022FDF7F5
:103200006DFC00287ED0089B002B7BD0B9F1000F0D
:1032100038DDDDE910016A4B0022FDF7EDF9CDE95B
:1032200004010AF1FF3801374C463846FDF77AF9B8
:10323000DDE90423FDF7E0F9624B0022FDF726F8F3
:10324000A1F15076CDE910011196002C5DD1DDE998
:1032500004015D4B0022FDF717F802460B46CDE94D
:103260000423109A3346FDF757FC002840F09C8257
:10327000DDE90401109A06F10043FDF72FFC002858
:1032800040F09082DDE90C34CDE90434179B002B2B
:10329000C0F25281BAF10E0F00F34E81454B03EBA1
:1032A000CA03D3E90034CDE90634239B002B80F216
:1032B000DB80089B002B00F3D78040F07282424BEA
:1032C0000022DDE90601FDF797F9DDE90423FDF7AA
:1032D00019FC089C2646002840F04882039F3123B1
:1032E00007F8013B0AF1010A44E2E20705D5D6E9F5
:1032F0000023FDF781F901370123641008366DE7DB
:10330000022770E7089CD0468FE70399294B214498
:1033100012910B9903EBC403DDE9106753E9022313
:10332000002955D029490020FDF790FA3B46324646
:10333000FCF7AAFFCDE91001039FDDE90401FDF7C9
:103340000BFC0446FDF7EEF802460B46DDE90401EE
:10335000FCF79AFF303402460B46CDE9042307F808
:10336000014BDDE91023FDF7B9FB002874D1DDE93D
:10337000042312490020FCF787FFDDE91023FDF745
:10338000ADFB002840F0B780129B9F423FF47AAF1C
:10339000DDE910010A4B0022FDF72EF9084BCDE9BB
:1033A00010010022DDE90401FDF726F9CDE9040151
:1033B000C3E700BFA04F0008784F00080000F03FAF
:1033C0000000244000001C40000014400000E03FCA
:1033D00030463946FDF710F9CDE91001129B039CE8
:1033E0001493DDE90401FDF7B7FB1590FDF79AF89A
:1033F00002460B46DDE90401FCF746FF159B30331E
:1034000004F8013B129B9C4206460F464FF0000217
:1034100024D1A44BDDE91001FCF738FF02460B462E
:1034200030463946FDF778FB002863D1DDE91023EB
:103430009C490020FCF728FF02460B4630463946DF
:10344000FDF74CFB00283FF41DAF149F7B1E149327
:1034500017F8013C302BF8D0C2463BE0924BFDF709
:10346000CBF8CDE90401BCE7DDE90489039FDDE980
:10347000062340464946FDF7E9F9FDF76DFB044692
:10348000FDF750F8DDE90623FDF7B6F804F1300644
:1034900002460B4640464946FCF7F6FE07F8016B2C
:1034A000039EDDF820C0BE1BB44502460B4636D154
:1034B000FCF7ECFEDDE9062380468946FDF72CFB90
:1034C00058BBDDE9062340464946FDF7FDFA08B141
:1034D000E10722D42846594600F0FEFC00233B7049
:1034E000249B0AF101001860269B002B3FF4DDAC01
:1034F0001F60DAE427463B461F4613F8012D392AA0
:1035000007D1039A9A42F7D10399302208F10108B2
:103510000A701A7801321A709EE7D046EBE7624BC8
:103520000022FDF769F80022002380468946FDF756
:10353000CBFA00289BD0CDE70B9A002A00F0D08070
:10354000229A012A00F3B280139A002A00F0A68082
:1035500003F233430A9C069F069A1A440692099A7C
:1035600001211A442846099200F06CFD0646002FFE
:103570000CDD099B002B09DDBB42069AA8BF3B4628
:10358000D21A0692099AFF1AD31A09930A9BF3B129
:103590000B9B002B00F0A880002C10DD314622464A
:1035A000284600F00DFE5A4601460646284600F021
:1035B0005FFD59468046284600F08EFCC3460A9BB4
:1035C0001A1B04D05946284600F0FAFD8346012113
:1035D000284600F037FD0E9B002B044640F3868002
:1035E0001A460146284600F0EBFD229B012B0446BB
:1035F0007FDD4FF00008236904EB8303186900F0B6
:10360000D3FCC0F12000099B184410F01F0000F00B
:103610009280C0F12003042B40F38A80C0F11C008B
:10362000069B03440693099B034407440993069BA6
:10363000002B05DD59461A46284600F01BFE83463E
:10364000099B002B05DD21461A46284600F012FE94
:1036500004460F9B002B70D02146584600F07AFE9E
:1036600000286ADA002359460A22284600F056FC50
:103670000B9B0AF1FF3A8346002B00F09481314600
:1036800000230A22284600F049FCB9F1000F064643
:1036900000F39380229B022B57DC8EE0169BC3F134
:1036A000360357E70000E03F00002440089B5C1E03
:1036B0000A9BA342BFBF0A9B0A94E21A0E9BB6BFA5
:1036C0009B181C1B0E93089BB8BF0024002BB9BF8E
:1036D000069B089A069F089BBCBF9F1A00233BE7E6
:1036E0000A9C069F0B9E42E70A9A6BE7229B012BDE
:1036F00019DC049BBBB9059BC3F313039BB9059B62
:1037000023F000431B0D1B0583B1069B0133069379
:10371000099B013309934FF001080E9B002B7FF4A6
:103720006AAF01206FE74FF00008F6E79846F4E72C
:103730003FF47DAF18461C3072E7089B002B36DC47
:10374000229B022B33DDDDF82090B9F1000F0DD163
:1037500021464B460522284600F0E0FB0146044680
:10376000584600F0F7FD00283FF7B8AD239B039FB4
:103770006FEA030A4FF000082146284600F0ACFB30
:10378000002E3FF4A7AEB8F1000F05D0B04503D02E
:103790004146284600F0A0FB3146284600F09CFB3D
:1037A00098E600242646E1E7C246264696E50B9BAE
:1037B000DDF82090002B00F0FD80002F05DD314664
:1037C0003A46284600F056FD0646B8F1000F5CD098
:1037D0007168284600F040FB074628B9804B024636
:1037E00040F2EA21FFF728BB32690232920006F16B
:1037F0000C010C3000F022FB01223946284600F073
:1038000039FD039B01330893039B4B440A93049BAC
:1038100003F00103B04609930646089B2146013B8D
:1038200058460493FFF76CFA03463033069041463E
:1038300058460B9300F08EFD3246814621462846BD
:1038400000F0A4FDC2680B9B074602BB0146584628
:1038500000F080FD0B9B024639462846CDE90B322D
:1038600000F03AFB229B0C9A089F43EA0201099B55
:103870000B430B9B0DD1392B29D0B9F1000F01DD82
:10388000069B3133049A137076E73046B9E701227C
:10389000E2E7B9F1000F06DB229941EA090909992B
:1038A00059EA010120D1002AECDD594601222846BF
:1038B000089300F0DFFC2146834600F04BFD002812
:1038C000089B02DCDED1DA07DCD5392BD8D1049A8B
:1038D000392313703B461F46013B17F8012C392A48
:1038E00050D001321A7047E7002A03DD392BEED0A1
:1038F0000133C7E7089A0A9902F8013C8A422AD0A4
:10390000594600230A22284600F008FBB0458346AA
:103910004FF000034FF00A024146284607D100F05D
:10392000FDFA80460646089B0133089375E700F0D0
:10393000F5FA3146804600230A22284600F0EEFAC6
:103940000646F0E7B9F1000F039ACCBF4F460127B6
:1039500017444FF00008594601222846089300F00A
:1039600089FC2146834600F0F5FC0028B2DC02D138
:10397000089BDB07AED43B461F4613F8012D302AC7
:10398000FAD0F9E6039A9A42A5D10AF1010A312345
:1039900079E7144BFFF7A7BA269B002B7FF480AA88
:1039A000114BFFF7A0BAB9F1000F03DC229B022BE9
:1039B0003FF7CBAE039F21465846FFF7A1F900F130
:1039C000300307F8013B039ABA1A9145BADD59460C
:1039D00000230A22284600F0A1FA8346EBE700BF45
:1039E000864E0008C04D0008E44D00088A89F8B5ED
:1039F000054610070C4657D44B68002B04DC0B6CB3
:103A0000002B01DC0020F8BDE66A002EFAD000236E
:103A100012F480522F682B6032D0606DA3895A0750
:103A200005D56368C01A636B0BB1236CC01A002301
:103A30000246E66A216A2846B047431CA38906D19C
:103A400029681D292CD8294ACA40D60728D5002222
:103A50006260D9042269226004D5421C01D12B681E
:103A600003B96065616B2F600029CBD004F144037A
:103A7000994202D0284600F081FD00206063C2E731
:103A8000216A01232846B047411CC7D12B68002B6F
:103A9000C4D01D2B01D0162B01D12F60B2E7A38912
:103AA00043F04003A381AEE70F69002FAAD093072C
:103AB0000E6808BF4B690F6018BF0023F61B8B60B0
:103AC000002E9FDD216AD4F828C033463A462846A6
:103AD000E047002806DCA38943F04003A3814FF0B0
:103AE000FF3090E70744361AEAE700BF01004020A4
:103AF00038B50B6905460C4613B90025284638BD74
:103B000018B183690BB900F087F8144B9C421BD1A4
:103B10006C68B4F90C30002BEFD0626ED00704D47F
:103B2000990502D4A06D00F01AF928462146FFF746
:103B30005DFF636EDA070546E0D4A3899B05DDD4FB
:103B4000A06D00F00DF9D9E7054B9C4201D1AC689E
:103B5000DFE7044B9C4208BFEC68DAE7B84E000888
:103B6000D84E0008984E0008002310B50446C0E95E
:103B70000033C0E90433836081814366C28183617D
:103B8000194608225C30FEF75BFA054B6362054B71
:103B9000A362054BE362054B2462236310BD00BFA3
:103BA000594700087B470008B3470008D74700087B
:103BB000014900F0AFB800BFF13A000870B56822C3
:103BC0004D1E55430E4605F1740100F041FD0446BB
:103BD00040B10021C0E900160C30A06005F1680278
:103BE000FEF72EFA204670BD014800F0B8B800BFBD
:103BF00021020020014800F0B3B800BF21020020DC
:103C0000014800F0ACB800BF22020020014800F0DB
:103C1000A7B800BF2202002010B50446FFF7F0FF4E
:103C2000A3691BB1BDE81040FFF7F0BFC4E9123330
:103C30002365134B134A1B68A262A34204BF0123EE
:103C4000A361204600F020F86060204600F01CF8D8
:103C5000A060204600F018F80022E06004216068AF
:103C6000FFF782FFA06801220921FFF77DFFE068CE
:103C700002221221FFF778FF0123A361D2E700BFE0
:103C8000AC4D0008B13B0008F8B50746FFF7ACFFA4
:103C90001E4B1E68B36913B93046FFF7BDFF4836A7
:103CA000D6E90134013B03D533680BB33668F7E737
:103CB000B4F90C50D5B9164BE36004F158006566B1
:103CC00000F04CF8FFF796FFC4E90155C4E904552C
:103CD0002560A5610822294604F15C00FEF7B0F9D1
:103CE000C4E90D55C4E912552046F8BD6834D9E73A
:103CF00004213846FFF762FF044630600028D5D122
:103D0000FFF778FF0C233B60EEE700BFAC4D0008E7
:103D10000100FFFF2DE9F8430646884600F14804FC
:103D20000027D4E90195B9F1010905D52468002CD3
:103D3000F7D13846BDE8F883AB89012B07D9B5F92F
:103D40000E30013303D029463046C047074368355B
:103D5000E9E7000000487047800100207047704785
:103D6000704770B50E46B1F90E10002996B0144692
:103D70001D4608DAB6F90C3000222A601A0610D463
:103D80004FF480630EE06A4600F07CFD0028F1DB12
:103D9000019A02F47042A2F500535A425A412A6035
:103DA000EEE740230020236016B070BD8B8973B509
:103DB0009D0706460C4607D504F14703236023619F
:103DC0000123636102B070BD01AB6A46FFF7C9FF12
:103DD00000990546304600F03BFC48B9B4F90C3078
:103DE0009A05EFD423F0030343F00203A381E3E732
:103DF0000D4BB362A389206043F08003A381009B35
:103E00006361019B20615BB1B4F90E10304600F094
:103E10004BFD28B1A38923F0030343F00103A381E1
:103E2000A0890543A581CDE7B13B0008024B0146BF
:103E3000186800F00DBC00BF2C0000200A4491421D
:103E400000F1FF3300D1704710B511F8014B03F8B2
:103E5000014F9142F9D110BD70B5466A04460D4636
:103E600076B91020FFF7E2FF0246606220B9184BD6
:103E70001848662100F0C6FCC0E901660660C6600D
:103E8000666AF36883B1636ADB6853F82500B8B9E2
:103E9000012101FA05F6721D9200204600F05AFB3E
:103EA00060B1C0E901560EE021220421204600F055
:103EB00051FB636AF060DB68002BE4D1002070BD29
:103EC000026843F825200023C0E90333F7E700BF69
:103ED000F14D0008F84E000870B5466A05460C46DC
:103EE00076B91020FFF7A2FF0246686220B9094B9D
:103EF00009488A2100F086FCC0E901660660C660B8
:103F00003CB16B6A6268DB6853F82210216043F8A9
:103F1000224070BDF14D0008F84E00082DE9F04137
:103F20000D6907460C461E4601F1140C0020DCF812
:103F3000003099B202FB01611E0C0B0C02FB063330
:103F400089B2013001EB034185424CF8041B4FEA72
:103F50001346ECDC0EB3A368AB4219DC616838464B
:103F60000131FFF779FF804628B902460C4B0D4816
:103F7000B52100F047FC2269023204F10C019200E5
:103F80000C30FFF75BFF21463846FFF7A5FF44469C
:103F900004EB850301355E6125612046BDE8F081B3
:103FA000864E0008F84E0008020C12040346CAB9F7
:103FB0000304102013F07F4F04BF1B02083013F0DE
:103FC000704F04BF1B01043013F0404F04BF9B002F
:103FD0000230002B05DB13F0804F00F1010008BF19
:103FE000202070470020E5E70368024613F0070031
:103FF0000BD0D90721D4980749BF5B089B08012043
:1040000013605CBF13600220704799B209B91B0CA2
:104010001020D9B209B908301B0A190704BF1B09BF
:104020000430990704BF9B080230D90703D45B080A
:1040300000F1010003D0136070470020704720207A
:104040007047000010B50C460121FFF705FF02463E
:1040500028B9054B05484FF4A07100F0D3FB0123AC
:104060004461036110BD00BF864E0008F84E000891
:104070002DE9F04F91460A69D9F810309A42B8BF3D
:104080000B460C46BCBF4C4699462769D9F810A090
:10409000A368616807EB0A06B34285B0B8BF013177
:1040A000FFF7DAFE30B90246434B444840F25D1157
:1040B00000F0A8FB00F1140505EB86082B46002252
:1040C000434521D304F1140303EB870709F11403DB
:1040D00003EB8A0202923A1B153A22F003020432E1
:1040E00004F115018F4238BF04220192029A039312
:1040F0009A420CD8002E03DD58F8043D002B59D00D
:10410000066105B0BDE8F08F43F8042BD8E7B3F89B
:1041100000A0BAF1000F23D004F1140EA9464FF00D
:10412000000C5EF8042BD9F800101FFA82FB89B24C
:104130000AFB0B116144D9F800C0120C4FEA1C4C69
:104140000AFB02C202EB114289B241EA0241774501
:1041500049F8041B4FEA124CE3D8019A45F802C013
:10416000039AB2F802900433B9F1000F20D0296805
:1041700004F1140CAE464FF0000ABCF800B0BEF8D3
:10418000022009FB0B22924489B241EA0A414EF80F
:10419000041B5CF8042BBEF80010120C09FB021182
:1041A00001EB1A4167454FEA114AE6D8019AA95036
:1041B00004359BE7013E9DE7864E0008F84E000857
:1041C0002DE9F843154612F0030206460F4607D0C4
:1041D000254C013A002354F82220FFF79FFE0746A2
:1041E000AD103DD0746A7CB91020FFF71FFE024667
:1041F000706228B91D4B1E484FF4D77100F002FBC6
:10420000C0E901440460C460D6F82480D8F80840AE
:104210004CB940F271213046FFF714FF0023C8F873
:104220000800044603604FF00009EB070AD5394641
:1042300022463046FFF71CFF394680463046FFF7DE
:104240004BFE47466D100BD0206838B922462146F8
:104250003046FFF70DFF2060C0F800900446E4E709
:104260003846BDE8F88300BF68500008F14D0008EB
:10427000F84E00082DE9F0470C464968236903EB26
:104280006218A368074691464FEA621A08F10106D0
:10429000B3420BDB3846FFF7DFFD054648B902465F
:1042A0002A4B2B4840F2D91100F0ACFA01315B00E7
:1042B000EEE7002300F1140100F110021846534507
:1042C00037DB20692AEAEA7A04F1140319F01F099E
:1042D00001EB8A0103EB80002FD0C9F1200E8A4642
:1042E0004FF0000C1A6802FA09F242EA0C024AF88E
:1042F000042B53F8042B984222FA0EFCF2D8031B2D
:10430000153B23F00303043304F11502904238BF38
:10431000042341F803C0BCF1000F01D008F10206EC
:10432000013E38462E612146FFF7D6FD2846BDE8FE
:10433000F08742F8040F0133C1E7043953F8042B26
:1043400041F8042F9842F9D8EAE700BF864E0008EA
:10435000F84E00080A6903460069801A30B50DD18D
:104360001433143103EB820401EB820154F8045D31
:1043700051F8042D954202D004D3012030BDA34250
:10438000F4D3FBE74FF0FF30F8E700002DE9F84FDA
:104390000D460746114628461446FFF7DBFF061E6A
:1043A00011D131463846FFF757FD024628B9394B3F
:1043B00040F23221384800F025FA0123C0E90436E2
:1043C0001046BDE8F88FA4BF23462C4638466168E6
:1043D000A6BF1D4600260126FFF73EFD024618B97E
:1043E0002C4B4FF41071E5E72769C6602E6904F184
:1043F000140005F1140902F1140E00EB870C09EB0F
:1044000086061034F246002159F8043B54F804BFE4
:104410001FFA83F811FA8BF11B0CA1EB0808C3EB10
:104420001B4303EB28431FFA88F819144E4548EA4A
:1044300003434AF8043BE7D8731B153B23F00303FF
:1044400004331535AE4238BF0423184473449E46E6
:10445000064666450ED30CF10301091A21F003014B
:104460000338844538BF0021194451F8043D7BB11D
:104470001761A5E756F8048B11FA88F4251405EBAB
:104480001845A4B244EA05444EF8044B2914E0E769
:10449000013FEAE7864E0008F84E00082DE9F34197
:1044A0000121DDE9087690461D46FFF7D5FC04465C
:1044B00030B90246254B264840F20A3100F0A2F9F5
:1044C000C5F31303C5F30A552DBB0193B8F10003DF
:1044D00026D068460093FFF787FD0099F0B1019A56
:1044E000C0F1200302FA03F30B43C240636101925F
:1044F000019BA361002B14BF022101212161C5B1E1
:10450000A5F233450544C0F135003D6030602046DA
:1045100002B0BDE8F08143F48013D6E76161E7E7BC
:1045200001A8FFF761FD019B63610121216120303A
:10453000E5E704EB8103A0F2324038601869FFF729
:1045400033FDC0EB41113160E1E700BF864E00084A
:10455000F84E000870B5A1FB025434B9294600F0AA
:1045600077F8064628B9304670BD0C220260002656
:10457000F9E72A462146FDF763FDF4E738B505461D
:10458000002941D051F8043C0C1F002BB8BFE4189F
:1045900000F0BEF91D4A136833B963601460284601
:1045A000BDE8384000F0BAB9A34208D92068211804
:1045B0008B4201BF19685B6809182160EDE71A4654
:1045C0005B680BB1A342FAD911685018A0420BD115
:1045D00020680144501883421160E0D118685B687C
:1045E000536001441160DAE702D90C232B60D6E74F
:1045F000206821188B4204BF19685B68636004BFA0
:10460000091821605460CAE738BD00BF24020020A9
:1046100070B50E4E0C463168054611B900F08CF8A5
:1046200030602146284600F087F8431C0AD0C41C9D
:1046300024F00304A04207D0211A284600F07CF899
:10464000013001D14FF0FF34204670BD2802002018
:104650002DE9F041CD1C25F0030508350C2D38BFA0
:104660000C25002D074601DBA94205D90C233B6030
:1046700000263046BDE8F0812E4E00F049F933683F
:104680001C4634BB29463846FFF7C2FF431C04468C
:104690004DD134682646002E40D123683146384635
:1046A00004EB030800F048F880453AD1216803354F
:1046B0006D1A25F0030508350C2D38BF0C25294649
:1046C0003846FFF7A5FF01302BD023682B44236029
:1046D0000EE02268521B1ED40B2A16D96119A34280
:1046E000256018BF5960636808BF316062514B6034
:1046F000384604F10B0600F011F926F00706231DD9
:10470000F21AB6D09B1BA350B3E76268A3420CBF5A
:1047100032605A60ECE723466468B2E73446766854
:10472000B9E70C233B60384600F0F8F8A1E72560B4
:10473000DEE700BF2402002038B5064D0023044602
:1047400008462B6000F0EAFA431C02D12B6803B143
:10475000236038BD2C02002010B50C46B1F90E10B4
:1047600000F03AFA0028ABBF636DA3891B1823F44D
:104770008053ACBF6365A38110BD2DE9F0411F4696
:104780008B89DB0505460C46164605D5B1F90E109A
:104790000223002200F098F8A389B4F90E1023F444
:1047A0008053A38132463B462846BDE8F04100F0E5
:1047B00017B810B50C46B1F90E1000F085F8431C7F
:1047C000A38915BF606523F4805343F48053A3810C
:1047D00018BFA38110BDB1F90E1000F031B8000070
:1047E00038B5074D04460846114600222A601A468D
:1047F000FDF766FA431C02D12B6803B1236038BD74
:104800002C0200201FB514461A46094B1B680546AA
:10481000D8684CB1074B0091CDE9013406492B46CD
:1048200000F01EF800F0F7F9044B1C46F3E700BF58
:104830002C0000207450000881500008AF50000880
:1048400038B5064D0023044608462B6000F02EFACA
:10485000431C02D12B6803B1236038BD2C02002019
:104860000EB403B5014603AB054853F8042B0068AA
:10487000019300F081F802B05DF804EB03B07047DB
:104880002C00002038B5074D002304460846114689
:104890002B6000F013FA431C02D12B6803B1236094
:1048A00038BD00BF2C02002038B5064D0023044659
:1048B00008462B6000F012FA431C02D12B6803B1AA
:1048C000236038BD2C02002038B5074D0446084649
:1048D000114600222A601A4600F010FA431C02D149
:1048E0002B6803B1236038BD2C02002082B001B9CF
:1048F00001A942B14BB113780B601278101E18BF9A
:10490000012002B070471046FBE76FF00100F8E7A6
:104910000148FFF724BA00BF200200200148FFF73A
:104920001FBA00BF200200209368013B002B10B487
:10493000936007DA9469A34201DB0A2902D110BC13
:10494000FEF71EB91368581C10601970084610BC99
:104950007047F8B506460F461446D518AC4201D14B
:10496000002007E014F8011B3A463046FFF7DCFF51
:10497000431CF3D1F8BD00002DE9F04F0D469DB06A
:1049800014469846064618B183690BB9FFF744F9F7
:10499000894B9D421BD175686B6ED90705D4AB89D5
:1049A0009A0502D4A86DFFF7DAF9AB891B0701D588
:1049B0002B69EBB929463046FEF734F9C0B16B6E6E
:1049C000DC070ED54FF0FF301DB0BDE8F08F7B4BFC
:1049D0009D4201D1B568DFE7794B9D4208BFF5687C
:1049E000DAE7AB899805EDD4A86DFFF7B9F9E9E7E7
:1049F0000023099320238DF82930CDF80C80302333
:104A0000DFF8C0818DF82A304FF0010923469A461D
:104A100013F8012B0AB1252AF9D1BAEB040B0BD0FC
:104A20005B46224629463046FFF793FF013000F0EF
:104A3000AA80099A5A4409929AF80030002B00F093
:104A4000A28000234FF0FF32CDE905230AF1010ACD
:104A5000049307938DF853301A935446052214F8A3
:104A6000011B5848FBF7BCFB049AD8B9D10644BFD8
:104A700020238DF85330130744BF2B238DF8533078
:104A80009AF800302A2B15D0079A544600204FF090
:104A90000A0C214611F8013B303B092B4ED9B0B12D
:104AA000079214E0A0EB080309FA03F313430493FD
:104AB000A246D2E7039B191D1B680391002BBBBFC5
:104AC0005B4242F0020207930793B8BF0492237837
:104AD0002E2B0CD163782A2B35D1039B1A1D1B6812
:104AE0000392002BB8BF4FF0FF3302340593DFF879
:104AF000D8A0217803225046FBF772FB40B1402337
:104B0000A0EB0A0003FA00F0049B03430134049372
:104B100014F8011B2D488DF828100622FBF760FBC6
:104B200000283FD02A4B1BBB039B073323F007030E
:104B300008330393099B3B44099367E70CFB02325C
:104B40000C460120A5E700230134059319464FF0D8
:104B50000A0C204610F8012B303A092A03D9002B01
:104B6000C5D00591C3E70CFB012104460123F0E702
:104B700003AB00932A46174B04A93046FDF706FB0A
:104B80000746781CD6D16B6ED90705D4AB899A0538
:104B900002D4A86DFFF7E4F8AB895B063FF512AFCE
:104BA000099811E703AB00932A460A4B04A9304643
:104BB000FDF784FDE4E700BFB84E0008D84E0008BA
:104BC000984E0008BA500008C0500008C4500008B1
:104BD0008D2100085349000838B5074D04460846A2
:104BE000114600222A601A4600F090F8431C02D1B8
:104BF0002B6803B1236038BD2C0200200346084611
:104C000041B1FF2A04D98A221A604FF0FF30704761
:104C10000A700120704708B5062000F02BF801202B
:104C200000F08AF81F2938B504460D4604D916232A
:104C300003604FF0FF3038BD426C12B152F82130A2
:104C40004BB9204600F030F82A4601462046BDE820
:104C5000384000F017B8012B0AD0591C03D1162395
:104C600003600120E7E7002442F8254028469847E2
:104C70000020E0E7024B01461868FFF7D3BF00BFF2
:104C80002C00002038B5074D002304460846114685
:104C90002B6000F02BF8431C02D12B6803B123607A
:104CA00038BD00BF2C02002000F010B8024B582283
:104CB0001A604FF0FF3070472C020020024B582240
:104CC0001A604FF0FF3070472C020020024B582230
:104CD0001A604FF0FF3070472C020020024B582220
:104CE0001A600020704700BF2C020020024B58229F
:104CF0001A604FF0FF3070472C020020024B582200
:104D00001A604FF0FF3070472C020020024B5822EF
:104D10001A604FF0FF3070472C020020044A05490A
:104D20001368002B08BF0B461844106018467047E4
:104D30003002002038020020FEE700BFF8B500BFB7
:104D4000F8BC08BC9E467047F8B500BFF8BC08BC6C
:044D50009E467047C4
:104D580061743332206D637520696E697469616CA2
:104D6800697A65206F6B2E0D0000000000000000BE
:104D78000000000001020304060708090000000003
:104D880001020304000000000102030402040608F3
:104D9800020C0810000000000000000001020304DB
:104DA8000607080930000020494E4600696E660073
:104DB8004E414E006E616E00300030313233343572
:104DC800363738394142434445460030313233346E
:104DD800353637383961626364656600496E6669DD
:104DE8006E697479004E614E005245454E54206DEF
:104DF800616C6C6F632073756363656564656400DB
:104E08002F6D6E742F776F726B73706163652F7778
:104E18006F726B73706163652F4743432D31302D7B
:104E2800706970656C696E652F6A656E6B696E7303
:104E38002D4743432D31302D706970656C696E655F
:104E48002D3333385F32303231313031385F3136DB
:104E580033343531363230332F7372632F6E6577C2
:104E68006C69622F6E65776C69622F6C6962632F5B
:104E78007374646C69622F64746F612E630042619D
:104E88006C6C6F63207375636365656465640000AB
:104E9800000000000000000000000000000000000A
:104EA80000000000000000000000000000000000FA
:104EB80000000000000000000000000000000000EA
:104EC80000000000000000000000000000000000DA
:104ED80000000000000000000000000000000000CA
:104EE80000000000000000000000000000000000BA
:104EF8002F6D6E742F776F726B73706163652F7788
:104F08006F726B73706163652F4743432D31302D8A
:104F1800706970656C696E652F6A656E6B696E7312
:104F28002D4743432D31302D706970656C696E656E
:104F38002D3333385F32303231313031385F3136EA
:104F480033343531363230332F7372632F6E6577D1
:104F58006C69622F6E65776C69622F6C6962632F6A
:104F68007374646C69622F6D707265632E630000E0
:104F78000080E03779C34143176E05B5B5B893464D
:104F8800F5F93FE9034F384D321D30F94877825A19
:104F98003CBF737FDD4F1575000000000000F03F37
:104FA80000000000000024400000000000005940FC
:104FB8000000000000408F40000000000088C3404F
:104FC80000000000006AF8400000000080842E41C4
:104FD80000000000D01263410000000084D7974110
:104FE8000000000065CDCD41000000205FA0024216
:104FF800000000E876483742000000A2941A6D428B
:10500800000040E59C30A2420000901EC4BCD6427D
:1050180000003426F56B0C430080E03779C3414328
:1050280000A0D8855734764300C84E676DC1AB439E
:10503800003D9160E458E143408CB5781DAF1544BC
:1050480050EFE2D6E41A4B4492D54D06CFF0804497
:10505800F64AE1C7022DB544B49DD9794378EA44AC
:1050680005000000190000007D0000002C20667576
:105078006E6374696F6E3A20006173736572746948
:105088006F6E2022257322206661696C65643A2060
:1050980066696C6520222573222C206C696E652058
:1050A8002564257325730A004300504F534958005F
:1050B8002E00232D302B2000686C4C006566674558
:1050C80046470000202020202020202020282828B3
:1050D80028282020202020202020202020202020B8
:1050E8002020202088101010101010101010101000
:1050F8001010101004040404040404040404101020
:1051080010101010104141414141410101010101BC
:105118000101010101010101010101010101011068
:105128001010101010424242424242020202020291
:105138000202020202020202020202020202021039
:105148001010102000000000000000000000000007
:105158000000000000000000000000000000000047
:105168000000000000000000000000000000000037
:105178000000000000000000000000000000000027
:105188000000000000000000000000000000000017
:105198000000000000000000000000000000000007
:1051A80000000000000000000000000000000000F7
:1051B80000000000000000000000000000000000E7
:0451C80000000000E3
:0451CC00B501000821
:0451D0009101000841
:1051D4000100000000127A00001401400014014094
:1051E4000014014000200040008000000500180069
:1051F4000500180005001800010000003000002020
:1052040000000000B84E0008D84E0008984E000870
:10521400000000000000000000000000000000008A
:10522400000000000000000000000000000000007A
:10523400000000000000000000000000000000006A
:10524400000000000000000000000000000000005A
:10525400000000000000000000000000000000004A
:1052640043000000000000000000000000000000F7
:10527400000000000000000000000000000000002A
:1052840043000000000000000000000000000000D7
:10529400000000000000000000000000000000000A
:1052A40043000000000000000000000000000000B7
:1052B40000000000000000000000000000000000EA
:1052C4004300000000000000000000000000000097
:1052D40000000000000000000000000000000000CA
:1052E4004300000000000000000000000000000077
:1052F40000000000000000000000000000000000AA
:105304004300000000000000000000000000000056
:105314000000000000000000000000000000000089
:105324004300000000000000000000000000000036
:105334000000000000000000000000000000000069
:10534400FD4B0008ED48000800000000CB500008A9
:10535400B8500008AF500008AF500008AF50000824
:10536400AF500008AF500008AF500008AF5000081D
:10537400AF500008AF500008FFFFFFFFFFFFFFFF23
:10538400FFFFFFFFFFFF00000100415343494900B5
:105394000000000000000000000000000000000009
:1053A4000000000000000000000041534349490090
:1053B40000000000000000000000000000000000E9
:0C53C400000000000000000000000000DD
:0400000508001AB124
:00000001FF
